:100000000C942A000C9434000C9434000C943400AA
:100010000C9434000C9434000C9434000C94340090
:100020000C9434000C9434000C9434000C94340080
:100030000C9434000C9434000C9434000C94340070
:100040000C9434000C9434000C9434000C94340060
:100050000C94340011241FBECFE5D8E0DEBFCDBF25
:100060000E949E050C94A3050C940000DF93CF938F
:1000700000D000D0CDB7DEB789836A838981282F6D
:1000800030E03C832B838B819C818130910549F149
:100090002B813C81223031052CF48B819C8100978F
:1000A00061F05AC02B813C812230310571F18B8186
:1000B0009C8183309105E9F14FC0ABE3B0E0EBE305
:1000C000F0E08081482F8A81282F30E081E090E0A5
:1000D000022E02C0880F991F0A94E2F7842B8C939A
:1000E0003BC0A5E3B0E0E5E3F0E08081482F8A81E2
:1000F000282F30E081E090E0022E02C0880F991F87
:100100000A94E2F7842B8C9327C0A5E3B0E0E5E3E3
:10011000F0E08081482F8A81282F30E081E090E054
:10012000022E02C0880F991F0A94E2F7842B8C9349
:1001300013C0A2E3B0E0E2E3F0E08081482F8A81BF
:10014000282F30E081E090E0022E02C0880F991F36
:100150000A94E2F7842B8C930F900F900F900F90DE
:10016000CF91DF910895DF93CF9300D000D0CDB72A
:10017000DEB789836A838981282F30E03C832B8313
:100180008B819C818130910559F12B813C812230FA
:1001900031052CF48B819C81009769F05FC02B8125
:1001A0003C812230310589F18B819C81833091051E
:1001B00009F440C053C0ABE3B0E0EBE3F0E0808172
:1001C000482F8A81282F30E081E090E0022E02C083
:1001D000880F991F0A94E2F7809584238C933EC080
:1001E000A5E3B0E0E5E3F0E08081482F8A81282F85
:1001F00030E081E090E0022E02C0880F991F0A943F
:10020000E2F7809584238C9329C0A5E3B0E0E5E371
:10021000F0E08081482F8A81282F30E081E090E053
:10022000022E02C0880F991F0A94E2F7809584235A
:100230008C9314C0A2E3B0E0E2E3F0E08081482FA9
:100240008A81282F30E081E090E0022E02C0880FE2
:10025000991F0A94E2F7809584238C930F900F9056
:100260000F900F90CF91DF910895DF93CF9300D03F
:1002700000D0CDB7DEB789836A838981282F30E02B
:100280003C832B838B819C818130910549F12B81AB
:100290003C81223031052CF48B819C81009761F0E8
:1002A0005AC02B813C812230310571F18B819C81B8
:1002B00083309105E9F14FC0ABE3B0E0EBE3F0E050
:1002C0008081482F8A81282F30E081E090E0022E43
:1002D00002C0880F991F0A94E2F784278C933BC0D1
:1002E000A5E3B0E0E5E3F0E08081482F8A81282F84
:1002F00030E081E090E0022E02C0880F991F0A943E
:10030000E2F784278C9327C0A5E3B0E0E5E3F0E0B3
:100310008081482F8A81282F30E081E090E0022EF2
:1003200002C0880F991F0A94E2F784278C9313C0A8
:10033000A2E3B0E0E2E3F0E08081482F8A81282F39
:1003400030E081E090E0022E02C0880F991F0A94ED
:10035000E2F784278C930F900F900F900F90CF911E
:10036000DF910895DF93CF9300D000D0CDB7DEB7F3
:1003700089836A838981282F30E03C832B834B81DA
:100380005C814130510509F440C08B819C818230F1
:10039000910534F42B813C812115310571F0AAC0FF
:1003A0004B815C814230510509F457C08B819C819F
:1003B0008330910509F478C09DC0EAE3F0E08081C4
:1003C000282F30E08A81882F90E0A90102C055953E
:1003D00047958A95E2F7CA0181709070009709F0FD
:1003E00089C0ABE3B0E0EBE3F0E08081482F8A8185
:1003F000282F30E081E090E0022E02C0880F991F84
:100400000A94E2F7842B8C9375C0E7E3F0E08081D7
:10041000282F30E08A81882F90E0A90102C05595ED
:1004200047958A95E2F7CA0181709070009709F0AC
:1004300061C0A5E3B0E0E5E3F0E08081482F8A8168
:10044000282F30E081E090E0022E02C0880F991F33
:100450000A94E2F7842B8C934DC0E4E3F0E08081B2
:10046000282F30E08A81882F90E0A90102C055959D
:1004700047958A95E2F7CA01817090700097D1F58F
:10048000A5E3B0E0E5E3F0E08081482F8A81282FE2
:1004900030E081E090E0022E02C0880F991F0A949C
:1004A000E2F7842B8C9326C0E1E3F0E08081282FD3
:1004B00030E08A81882F90E0A90102C055954795C8
:1004C0008A95E2F7CA0181709070009799F4A2E3CF
:1004D000B0E0E2E3F0E08081482F8A81282F30E00D
:1004E00081E090E0022E02C0880F991F0A94E2F783
:1004F000842B8C930F900F900F900F90CF91DF91E2
:100500000895DF93CF9300D000D0CDB7DEB78983B5
:100510006A838981282F30E03C832B834B815C8167
:100520004130510509F441C08B819C818230910595
:1005300034F42B813C812115310571F0AEC04B8123
:100540005C814230510509F459C08B819C81833014
:10055000910509F47BC0A1C0EAE3F0E08081282F77
:1005600030E08A81882F90E0A90102C05595479517
:100570008A95E2F7CA0181709070009709F08DC0EA
:10058000ABE3B0E0EBE3F0E08081482F8A81282FD5
:1005900030E081E090E0022E02C0880F991F0A949B
:1005A000E2F7809584238C9378C0E7E3F0E08081C4
:1005B000282F30E08A81882F90E0A90102C055954C
:1005C00047958A95E2F7CA0181709070009709F00B
:1005D00064C0A5E3B0E0E5E3F0E08081482F8A81C4
:1005E000282F30E081E090E0022E02C0880F991F92
:1005F0000A94E2F7809584238C934FC0E4E3F0E003
:100600008081282F30E08A81882F90E0A90102C0E4
:10061000559547958A95E2F7CA01817090700097C9
:10062000E1F5A5E3B0E0E5E3F0E08081482F8A81C1
:10063000282F30E081E090E0022E02C0880F991F41
:100640000A94E2F7809584238C9327C0E1E3F0E0DD
:100650008081282F30E08A81882F90E0A90102C094
:10066000559547958A95E2F7CA0181709070009779
:10067000A1F4A2E3B0E0E2E3F0E08081482F8A81B8
:10068000282F30E081E090E0022E02C0880F991FF1
:100690000A94E2F7809584238C930F900F900F902B
:1006A0000F90CF91DF910895DF93CF9300D000D0CA
:1006B0000F92CDB7DEB789836A838981282F30E016
:1006C0003D832C834C815D814130510549F18C8102
:1006D0009D818230910534F42C813D8121153105B5
:1006E00061F057C04C815D814230510561F18C81D0
:1006F0009D8183309105D1F14CC0E9E3F0E0808128
:10070000282F30E08A81882F90E0A90102C05595FA
:1007100047958A95E2F7CA01582F51705B833AC01A
:10072000E6E3F0E08081282F30E08A81882F90E096
:10073000A90102C0559547958A95E2F7CA01582F3D
:1007400051705B8327C0E3E3F0E08081282F30E025
:100750008A81882F90E0A90102C0559547958A9516
:10076000E2F7CA01582F51705B8314C0E0E3F0E058
:100770008081282F30E08A81882F90E0A90102C073
:10078000559547958A95E2F7CA01582F51705B83BA
:1007900001C01B828B810F900F900F900F900F90D4
:1007A000CF91DF910895DF93CF9300D000D00F92C7
:1007B000CDB7DEB789836A834B838981282F30E0E8
:1007C0003D832C838C819D818130910509F443C048
:1007D0002C813D81223031052CF48C819D81009744
:1007E00071F0BCC02C813D812230310509F45FC01D
:1007F0008C819D818330910509F485C0AFC08B81C8
:100800008130A1F4AAE3B0E0EAE3F0E08081482F70
:100810008A81282F30E081E090E0022E02C0880F0C
:10082000991F0A94E2F7842B8C9398C0AAE3B0E056
:10083000EAE3F0E08081482F8A81282F30E081E0D0
:1008400090E0022E02C0880F991F0A94E2F780956B
:1008500084238C9383C08B818130A1F4A7E3B0E023
:10086000E7E3F0E08081482F8A81282F30E081E0A3
:1008700090E0022E02C0880F991F0A94E2F7842BA1
:100880008C936CC0A7E3B0E0E7E3F0E08081482FF1
:100890008A81282F30E081E090E0022E02C0880F8C
:1008A000991F0A94E2F7809584238C9357C08B811B
:1008B0008130A1F4A4E3B0E0E4E3F0E08081482FCC
:1008C0008A81282F30E081E090E0022E02C0880F5C
:1008D000991F0A94E2F7842B8C9340C0A4E3B0E004
:1008E000E4E3F0E08081482F8A81282F30E081E026
:1008F00090E0022E02C0880F991F0A94E2F78095BB
:1009000084238C932BC08B818130A1F4A1E3B0E0D0
:10091000E1E3F0E08081482F8A81282F30E081E0F8
:1009200090E0022E02C0880F991F0A94E2F7842BF0
:100930008C9314C0A1E3B0E0E1E3F0E08081482FA4
:100940008A81282F30E081E090E0022E02C0880FDB
:10095000991F0A94E2F7809584238C930F900F904F
:100960000F900F900F90CF91DF910895DF93CF9369
:10097000CDB7DEB780E063E041E00E94D303CF91C2
:10098000DF910895DF93CF93CDB7DEB780E063E0CA
:100990000E943600CF91DF910895DF93CF93CDB7BA
:1009A000DEB780E063E00E94B300CF91DF9108954D
:1009B000DF93CF93CDB7DEB780E063E00E943501CF
:1009C000CF91DF910895DF93CF9300D00F92CDB7F1
:1009D000DEB789838981282F30E03B832A838A818F
:1009E0009B818130910579F02A813B81223031054C
:1009F00081F08A819B81009789F482E062E041E086
:100A00000E94D3030BC082E067E041E00E94D30361
:100A100005C083E063E041E00E94D3030F900F9094
:100A20000F90CF91DF910895DF93CF9300D00F9275
:100A3000CDB7DEB789838981282F30E03B832A83B5
:100A40008A819B818130910571F02A813B8122301E
:100A5000310571F08A819B81009771F482E062E038
:100A60000E94360009C082E067E00E94360004C0A0
:100A700083E063E00E9436000F900F900F90CF91BB
:100A8000DF910895DF93CF9300D00F92CDB7DEB7FB
:100A900089838981282F30E03B832A838A819B8147
:100AA0008130910571F02A813B812230310571F04E
:100AB0008A819B81009771F482E062E00E94B3001A
:100AC00009C082E067E00E94B30004C083E063E0F5
:100AD0000E94B3000F900F900F90CF91DF91089577
:100AE000DF93CF9300D00F92CDB7DEB78983898192
:100AF000282F30E03B832A838A819B8181309105B6
:100B000071F02A813B812230310571F08A819B810D
:100B1000009771F482E062E00E94350109C082E032
:100B200067E00E94350104C083E063E00E94350164
:100B30000F900F900F90CF91DF910895DF93CF9397
:0A0B4000CDB7DEB7FFCFF894FFCF6A
:00000001FF
